{
  "_format": "hh-sol-artifact-1",
  "contractName": "FoodTrace",
  "sourceName": "contracts/FoodTrace.sol",
  "abi": [
    {
      "inputs": [],
      "stateMutability": "nonpayable",
      "type": "constructor"
    },
    {
      "anonymous": false,
      "inputs": [
        {
          "indexed": false,
          "internalType": "uint256",
          "name": "batchId",
          "type": "uint256"
        }
      ],
      "name": "Archived",
      "type": "event"
    },
    {
      "anonymous": false,
      "inputs": [
        {
          "indexed": false,
          "internalType": "uint256",
          "name": "batchId",
          "type": "uint256"
        },
        {
          "indexed": false,
          "internalType": "string",
          "name": "name",
          "type": "string"
        },
        {
          "indexed": true,
          "internalType": "address",
          "name": "owner",
          "type": "address"
        }
      ],
      "name": "BatchCreated",
      "type": "event"
    },
    {
      "anonymous": false,
      "inputs": [
        {
          "indexed": false,
          "internalType": "uint256",
          "name": "batchId",
          "type": "uint256"
        },
        {
          "indexed": false,
          "internalType": "enum FoodTrace.EventType",
          "name": "eventType",
          "type": "uint8"
        },
        {
          "indexed": false,
          "internalType": "string",
          "name": "location",
          "type": "string"
        }
      ],
      "name": "BatchEvent",
      "type": "event"
    },
    {
      "anonymous": false,
      "inputs": [
        {
          "indexed": false,
          "internalType": "uint256",
          "name": "batchId",
          "type": "uint256"
        }
      ],
      "name": "OwnershipRevoked",
      "type": "event"
    },
    {
      "anonymous": false,
      "inputs": [
        {
          "indexed": false,
          "internalType": "uint256",
          "name": "batchId",
          "type": "uint256"
        },
        {
          "indexed": true,
          "internalType": "address",
          "name": "from",
          "type": "address"
        },
        {
          "indexed": true,
          "internalType": "address",
          "name": "to",
          "type": "address"
        }
      ],
      "name": "OwnershipTransferred",
      "type": "event"
    },
    {
      "inputs": [
        {
          "internalType": "uint256",
          "name": "batchId",
          "type": "uint256"
        },
        {
          "internalType": "enum FoodTrace.EventType",
          "name": "eventType",
          "type": "uint8"
        },
        {
          "internalType": "string",
          "name": "location",
          "type": "string"
        },
        {
          "internalType": "string",
          "name": "additionalData",
          "type": "string"
        }
      ],
      "name": "addBatchEvent",
      "outputs": [],
      "stateMutability": "nonpayable",
      "type": "function"
    },
    {
      "inputs": [
        {
          "internalType": "address",
          "name": "agency",
          "type": "address"
        }
      ],
      "name": "addTrustedAgency",
      "outputs": [],
      "stateMutability": "nonpayable",
      "type": "function"
    },
    {
      "inputs": [],
      "name": "admin",
      "outputs": [
        {
          "internalType": "address",
          "name": "",
          "type": "address"
        }
      ],
      "stateMutability": "view",
      "type": "function"
    },
    {
      "inputs": [
        {
          "internalType": "uint256",
          "name": "batchId",
          "type": "uint256"
        }
      ],
      "name": "archiveBatch",
      "outputs": [],
      "stateMutability": "nonpayable",
      "type": "function"
    },
    {
      "inputs": [
        {
          "internalType": "address",
          "name": "user",
          "type": "address"
        },
        {
          "internalType": "enum FoodTrace.Role",
          "name": "role",
          "type": "uint8"
        }
      ],
      "name": "assignRole",
      "outputs": [],
      "stateMutability": "nonpayable",
      "type": "function"
    },
    {
      "inputs": [
        {
          "internalType": "uint256",
          "name": "",
          "type": "uint256"
        },
        {
          "internalType": "uint256",
          "name": "",
          "type": "uint256"
        }
      ],
      "name": "batchEvents",
      "outputs": [
        {
          "internalType": "uint256",
          "name": "batchId",
          "type": "uint256"
        },
        {
          "internalType": "enum FoodTrace.EventType",
          "name": "eventType",
          "type": "uint8"
        },
        {
          "internalType": "string",
          "name": "location",
          "type": "string"
        },
        {
          "internalType": "uint256",
          "name": "timestamp",
          "type": "uint256"
        },
        {
          "internalType": "string",
          "name": "additionalData",
          "type": "string"
        }
      ],
      "stateMutability": "view",
      "type": "function"
    },
    {
      "inputs": [
        {
          "internalType": "uint256",
          "name": "",
          "type": "uint256"
        }
      ],
      "name": "batches",
      "outputs": [
        {
          "internalType": "uint256",
          "name": "id",
          "type": "uint256"
        },
        {
          "internalType": "string",
          "name": "name",
          "type": "string"
        },
        {
          "internalType": "address",
          "name": "currentOwner",
          "type": "address"
        },
        {
          "internalType": "string",
          "name": "location",
          "type": "string"
        },
        {
          "internalType": "uint256",
          "name": "timestamp",
          "type": "uint256"
        },
        {
          "internalType": "uint256",
          "name": "expiryDate",
          "type": "uint256"
        },
        {
          "internalType": "bool",
          "name": "isArchived",
          "type": "bool"
        }
      ],
      "stateMutability": "view",
      "type": "function"
    },
    {
      "inputs": [
        {
          "internalType": "string",
          "name": "name",
          "type": "string"
        },
        {
          "internalType": "string",
          "name": "location",
          "type": "string"
        },
        {
          "internalType": "uint256",
          "name": "expiryDate",
          "type": "uint256"
        }
      ],
      "name": "createBatch",
      "outputs": [],
      "stateMutability": "nonpayable",
      "type": "function"
    },
    {
      "inputs": [
        {
          "internalType": "uint256",
          "name": "batchId",
          "type": "uint256"
        }
      ],
      "name": "getBatch",
      "outputs": [
        {
          "components": [
            {
              "internalType": "uint256",
              "name": "id",
              "type": "uint256"
            },
            {
              "internalType": "string",
              "name": "name",
              "type": "string"
            },
            {
              "internalType": "address",
              "name": "currentOwner",
              "type": "address"
            },
            {
              "internalType": "string",
              "name": "location",
              "type": "string"
            },
            {
              "internalType": "uint256",
              "name": "timestamp",
              "type": "uint256"
            },
            {
              "internalType": "uint256",
              "name": "expiryDate",
              "type": "uint256"
            },
            {
              "internalType": "bool",
              "name": "isArchived",
              "type": "bool"
            }
          ],
          "internalType": "struct FoodTrace.Batch",
          "name": "",
          "type": "tuple"
        }
      ],
      "stateMutability": "view",
      "type": "function"
    },
    {
      "inputs": [
        {
          "internalType": "uint256",
          "name": "batchId",
          "type": "uint256"
        }
      ],
      "name": "getBatchDetails",
      "outputs": [
        {
          "internalType": "string",
          "name": "name",
          "type": "string"
        },
        {
          "internalType": "address",
          "name": "currentOwner",
          "type": "address"
        },
        {
          "internalType": "string",
          "name": "location",
          "type": "string"
        },
        {
          "internalType": "uint256",
          "name": "expiryDate",
          "type": "uint256"
        },
        {
          "internalType": "bool",
          "name": "isArchived",
          "type": "bool"
        }
      ],
      "stateMutability": "view",
      "type": "function"
    },
    {
      "inputs": [
        {
          "internalType": "uint256",
          "name": "batchId",
          "type": "uint256"
        }
      ],
      "name": "getEvents",
      "outputs": [
        {
          "components": [
            {
              "internalType": "uint256",
              "name": "batchId",
              "type": "uint256"
            },
            {
              "internalType": "enum FoodTrace.EventType",
              "name": "eventType",
              "type": "uint8"
            },
            {
              "internalType": "string",
              "name": "location",
              "type": "string"
            },
            {
              "internalType": "uint256",
              "name": "timestamp",
              "type": "uint256"
            },
            {
              "internalType": "string",
              "name": "additionalData",
              "type": "string"
            }
          ],
          "internalType": "struct FoodTrace.Event[]",
          "name": "",
          "type": "tuple[]"
        }
      ],
      "stateMutability": "view",
      "type": "function"
    },
    {
      "inputs": [
        {
          "internalType": "address",
          "name": "user",
          "type": "address"
        }
      ],
      "name": "getRole",
      "outputs": [
        {
          "internalType": "enum FoodTrace.Role",
          "name": "",
          "type": "uint8"
        }
      ],
      "stateMutability": "view",
      "type": "function"
    },
    {
      "inputs": [
        {
          "internalType": "address",
          "name": "user",
          "type": "address"
        }
      ],
      "name": "getUserBatches",
      "outputs": [
        {
          "internalType": "uint256[]",
          "name": "",
          "type": "uint256[]"
        }
      ],
      "stateMutability": "view",
      "type": "function"
    },
    {
      "inputs": [
        {
          "internalType": "uint256",
          "name": "batchId",
          "type": "uint256"
        }
      ],
      "name": "isBatchExpired",
      "outputs": [
        {
          "internalType": "bool",
          "name": "",
          "type": "bool"
        }
      ],
      "stateMutability": "view",
      "type": "function"
    },
    {
      "inputs": [
        {
          "internalType": "address",
          "name": "agency",
          "type": "address"
        }
      ],
      "name": "isTrusted",
      "outputs": [
        {
          "internalType": "bool",
          "name": "",
          "type": "bool"
        }
      ],
      "stateMutability": "view",
      "type": "function"
    },
    {
      "inputs": [],
      "name": "nextBatchId",
      "outputs": [
        {
          "internalType": "uint256",
          "name": "",
          "type": "uint256"
        }
      ],
      "stateMutability": "view",
      "type": "function"
    },
    {
      "inputs": [
        {
          "internalType": "address",
          "name": "agency",
          "type": "address"
        }
      ],
      "name": "removeTrustedAgency",
      "outputs": [],
      "stateMutability": "nonpayable",
      "type": "function"
    },
    {
      "inputs": [
        {
          "internalType": "uint256",
          "name": "batchId",
          "type": "uint256"
        }
      ],
      "name": "revokeOwnership",
      "outputs": [],
      "stateMutability": "nonpayable",
      "type": "function"
    },
    {
      "inputs": [
        {
          "internalType": "uint256",
          "name": "batchId",
          "type": "uint256"
        },
        {
          "internalType": "address",
          "name": "newOwner",
          "type": "address"
        }
      ],
      "name": "transferOwnership",
      "outputs": [],
      "stateMutability": "nonpayable",
      "type": "function"
    },
    {
      "inputs": [
        {
          "internalType": "address",
          "name": "",
          "type": "address"
        }
      ],
      "name": "trustedAgencies",
      "outputs": [
        {
          "internalType": "bool",
          "name": "",
          "type": "bool"
        }
      ],
      "stateMutability": "view",
      "type": "function"
    },
    {
      "inputs": [
        {
          "internalType": "address",
          "name": "",
          "type": "address"
        },
        {
          "internalType": "uint256",
          "name": "",
          "type": "uint256"
        }
      ],
      "name": "userBatches",
      "outputs": [
        {
          "internalType": "uint256",
          "name": "",
          "type": "uint256"
        }
      ],
      "stateMutability": "view",
      "type": "function"
    },
    {
      "inputs": [
        {
          "internalType": "address",
          "name": "",
          "type": "address"
        }
      ],
      "name": "userRoles",
      "outputs": [
        {
          "internalType": "enum FoodTrace.Role",
          "name": "",
          "type": "uint8"
        }
      ],
      "stateMutability": "view",
      "type": "function"
    }
  ],
  "bytecode": "0x608060405234801561001057600080fd5b50600180546001600160a01b0319163390811782556000908152600360205260409020805460ff19169091179055611ef38061004d6000396000f3fe608060405234801561001057600080fd5b50600436106101425760003560e01c806387ea2915116100b8578063bd687def1161007c578063bd687def14610338578063d913a08b14610358578063de75348c14610378578063f851a4401461039c578063fc8a5f04146103c7578063fff954b5146103da57600080fd5b806387ea29151461029c57806396d64879146102af5780639d47dcc0146102db578063b32c4d8d146102ff578063b787b1a91461032557600080fd5b806350ce10a61161010a57806350ce10a6146101e55780635ac4428214610218578063630a195b146102385780636a42ba921461024b57806374d5e100146102705780638462a7f81461029357600080fd5b80631c1514641461014757806329507f731461015c5780633d91eaa51461016f5780634427673314610182578063475d1ba3146101c4575b600080fd5b61015a610155366004611735565b6103ed565b005b61015a61016a366004611757565b610444565b61015a61017d366004611783565b6105d9565b6101ae610190366004611735565b6001600160a01b031660009081526002602052604090205460ff1690565b6040516101bb91906117b2565b60405180910390f35b6101d76101d23660046117cc565b610671565b6040519081526020016101bb565b6102086101f3366004611735565b60036020526000908152604090205460ff1681565b60405190151581526020016101bb565b61022b610226366004611783565b6106a2565b6040516101bb919061183c565b61015a6102463660046118c3565b61087a565b610208610259366004611783565b600090815260046020526040902060050154421190565b6101ae61027e366004611735565b60026020526000908152604090205460ff1681565b6101d760005481565b61015a6102aa3660046119a1565b6108e2565b6102086102bd366004611735565b6001600160a01b031660009081526003602052604090205460ff1690565b6102ee6102e9366004611783565b610ae5565b6040516101bb959493929190611a0e565b61031261030d366004611783565b610ca7565b6040516101bb9796959493929190611a5c565b61015a610333366004611735565b610e06565b61034b610346366004611783565b610e51565b6040516101bb9190611acc565b61036b610366366004611735565b611034565b6040516101bb9190611b7c565b61038b610386366004611bc0565b6110a0565b6040516101bb959493929190611be2565b6001546103af906001600160a01b031681565b6040516001600160a01b0390911681526020016101bb565b61015a6103d5366004611c2c565b611204565b61015a6103e8366004611783565b611690565b6001546001600160a01b031633146104205760405162461bcd60e51b815260040161041790611cb0565b60405180910390fd5b6001600160a01b03166000908152600360205260409020805460ff19166001179055565b60008281526004602052604090206002015482906001600160a01b0316331461047f5760405162461bcd60e51b815260040161041790611cd4565b60023360009081526002602052604090205460ff1660058111156104a5576104a561179c565b146105005760405162461bcd60e51b815260206004820152602560248201527f4f6e6c79205472616e73706f727465722063616e207472616e73666572206261604482015264746368657360d81b6064820152608401610417565b6000838152600460205260409020600501544211156105545760405162461bcd60e51b815260206004820152601060248201526f10985d18da081a5cc8195e1c1a5c995960821b6044820152606401610417565b600083815260046020908152604080832060020180546001600160a01b0319166001600160a01b038716908117909155808452600683528184208054600181018255908552938390209093018690555185815233917f16b85f49bf01212961345d3016c9a531894accf62eb7680f2045d79185cc0ec0910160405180910390a3505050565b60008181526004602052604090206002015481906001600160a01b031633146106145760405162461bcd60e51b815260040161041790611cd4565b6000828152600460205260409081902060020180546001600160a01b0319169055517f8bb54ae11b4050fc65a10d74e6b1c38b7692f11be5ceba384296fcb47a75d5d8906106659084815260200190565b60405180910390a15050565b6006602052816000526040600020818154811061068d57600080fd5b90600052602060002001600091509150505481565b6106ed6040518060e00160405280600081526020016060815260200160006001600160a01b031681526020016060815260200160008152602001600081526020016000151581525090565b600460008381526020019081526020016000206040518060e00160405290816000820154815260200160018201805461072590611cfd565b80601f016020809104026020016040519081016040528092919081815260200182805461075190611cfd565b801561079e5780601f106107735761010080835404028352916020019161079e565b820191906000526020600020905b81548152906001019060200180831161078157829003601f168201915b505050918352505060028201546001600160a01b031660208201526003820180546040909201916107ce90611cfd565b80601f01602080910402602001604051908101604052809291908181526020018280546107fa90611cfd565b80156108475780601f1061081c57610100808354040283529160200191610847565b820191906000526020600020905b81548152906001019060200180831161082a57829003601f168201915b5050509183525050600482015460208201526005820154604082015260069091015460ff16151560609091015292915050565b6001546001600160a01b031633146108a45760405162461bcd60e51b815260040161041790611cb0565b6001600160a01b0382166000908152600260205260409020805482919060ff191660018360058111156108d9576108d961179c565b02179055505050565b3360009081526003602052604090205460ff166109365760405162461bcd60e51b81526020600482015260126024820152714e6f742074727573746564206167656e637960701b6044820152606401610417565b60013360009081526002602052604090205460ff16600581111561095c5761095c61179c565b146109a95760405162461bcd60e51b815260206004820152601e60248201527f4f6e6c79204661726d65722063616e20637265617465206261746368657300006044820152606401610417565b6000805481806109b883611d37565b909155506040805160e081018252828152602080820188815233838501526060830188905242608084015260a08301879052600060c084018190528581526004909252929020815181559151929350916001820190610a179082611dad565b5060408201516002820180546001600160a01b0319166001600160a01b0390921691909117905560608201516003820190610a529082611dad565b506080820151600482015560a0820151600582015560c0909101516006918201805460ff19169115159190911790553360008181526020928352604080822080546001810182559083529390912090920183905590517f195a26ecf0c9b8fb957ecc3a7c029ce84849279de600e16f205ee789052052b690610ad79084908890611e6d565b60405180910390a250505050565b6060600060606000806000600460008881526020019081526020016000206040518060e001604052908160008201548152602001600182018054610b2890611cfd565b80601f0160208091040260200160405190810160405280929190818152602001828054610b5490611cfd565b8015610ba15780601f10610b7657610100808354040283529160200191610ba1565b820191906000526020600020905b815481529060010190602001808311610b8457829003601f168201915b505050918352505060028201546001600160a01b03166020820152600382018054604090920191610bd190611cfd565b80601f0160208091040260200160405190810160405280929190818152602001828054610bfd90611cfd565b8015610c4a5780601f10610c1f57610100808354040283529160200191610c4a565b820191906000526020600020905b815481529060010190602001808311610c2d57829003601f168201915b50505091835250506004820154602080830191909152600583015460408084019190915260069093015460ff161515606092830152830151918301519083015160a084015160c090940151929b919a509850919650945092505050565b60046020526000908152604090208054600182018054919291610cc990611cfd565b80601f0160208091040260200160405190810160405280929190818152602001828054610cf590611cfd565b8015610d425780601f10610d1757610100808354040283529160200191610d42565b820191906000526020600020905b815481529060010190602001808311610d2557829003601f168201915b505050600284015460038501805494956001600160a01b03909216949193509150610d6c90611cfd565b80601f0160208091040260200160405190810160405280929190818152602001828054610d9890611cfd565b8015610de55780601f10610dba57610100808354040283529160200191610de5565b820191906000526020600020905b815481529060010190602001808311610dc857829003601f168201915b50505050600483015460058401546006909401549293909290915060ff1687565b6001546001600160a01b03163314610e305760405162461bcd60e51b815260040161041790611cb0565b6001600160a01b03166000908152600360205260409020805460ff19169055565b606060056000838152602001908152602001600020805480602002602001604051908101604052809291908181526020016000905b8282101561102957838290600052602060002090600502016040518060a0016040529081600082015481526020016001820160009054906101000a900460ff166006811115610ed757610ed761179c565b6006811115610ee857610ee861179c565b8152602001600282018054610efc90611cfd565b80601f0160208091040260200160405190810160405280929190818152602001828054610f2890611cfd565b8015610f755780601f10610f4a57610100808354040283529160200191610f75565b820191906000526020600020905b815481529060010190602001808311610f5857829003601f168201915b5050505050815260200160038201548152602001600482018054610f9890611cfd565b80601f0160208091040260200160405190810160405280929190818152602001828054610fc490611cfd565b80156110115780601f10610fe657610100808354040283529160200191611011565b820191906000526020600020905b815481529060010190602001808311610ff457829003601f168201915b50505050508152505081526020019060010190610e86565b505050509050919050565b6001600160a01b03811660009081526006602090815260409182902080548351818402810184019094528084526060939283018282801561109457602002820191906000526020600020905b815481526020019060010190808311611080575b50505050509050919050565b600560205281600052604060002081815481106110bc57600080fd5b600091825260209091206005909102018054600182015460028301805492955060ff9091169350906110ed90611cfd565b80601f016020809104026020016040519081016040528092919081815260200182805461111990611cfd565b80156111665780601f1061113b57610100808354040283529160200191611166565b820191906000526020600020905b81548152906001019060200180831161114957829003601f168201915b50505050509080600301549080600401805461118190611cfd565b80601f01602080910402602001604051908101604052809291908181526020018280546111ad90611cfd565b80156111fa5780601f106111cf576101008083540402835291602001916111fa565b820191906000526020600020905b8154815290600101906020018083116111dd57829003601f168201915b5050505050905085565b3360009081526003602052604090205460ff166112585760405162461bcd60e51b81526020600482015260126024820152714e6f742074727573746564206167656e637960701b6044820152606401610417565b60008481526004602052604090206006015460ff16156112ab5760405162461bcd60e51b815260206004820152600e60248201526d10985d18da08185c98da1a5d995960921b6044820152606401610417565b6000848152600460205260409020600501544211156112fc5760405162461bcd60e51b815260206004820152600d60248201526c10985d18da08195e1c1a5c9959609a1b6044820152606401610417565b60008360068111156113105761131061179c565b148061132d5750600183600681111561132b5761132b61179c565b145b156113aa5760013360009081526002602052604090205460ff1660058111156113585761135861179c565b146113a55760405162461bcd60e51b815260206004820152601e60248201527f4f6e6c79204661726d65722063616e206164642074686973206576656e7400006044820152606401610417565b611581565b60038360068111156113be576113be61179c565b036114425760023360009081526002602052604090205460ff1660058111156113e9576113e961179c565b146113a55760405162461bcd60e51b815260206004820152602360248201527f4f6e6c79205472616e73706f727465722063616e206164642074686973206576604482015262195b9d60ea1b6064820152608401610417565b60048360068111156114565761145661179c565b036114d85760033360009081526002602052604090205460ff1660058111156114815761148161179c565b146113a55760405162461bcd60e51b815260206004820152602160248201527f4f6e6c792057617265686f7573652063616e206164642074686973206576656e6044820152601d60fa1b6064820152608401610417565b60058360068111156114ec576114ec61179c565b1480611509575060068360068111156115075761150761179c565b145b156115815760043360009081526002602052604090205460ff1660058111156115345761153461179c565b146115815760405162461bcd60e51b815260206004820181905260248201527f4f6e6c792052657461696c65722063616e206164642074686973206576656e746044820152606401610417565b600560008581526020019081526020016000206040518060a001604052808681526020018560068111156115b7576115b761179c565b8152602080820186905242604083015260609091018490528254600181810185556000948552938290208351600590920201908155908201518184018054939492939192909160ff1916908360068111156116145761161461179c565b02179055506040820151600282019061162d9082611dad565b50606082015160038201556080820151600482019061164c9082611dad565b5050507fc97a1d53c4641fab2d96d8111e365a5f61f64bbc2d8bfd7b32566fe25668e33284848460405161168293929190611e8e565b60405180910390a150505050565b60008181526004602052604090206002015481906001600160a01b031633146116cb5760405162461bcd60e51b815260040161041790611cd4565b60008281526004602052604090819020600601805460ff19166001179055517f6bf5226862534f1f8e0e38bb1dedf734c41792331a0e205c27782a3d37f75e67906106659084815260200190565b80356001600160a01b038116811461173057600080fd5b919050565b60006020828403121561174757600080fd5b61175082611719565b9392505050565b6000806040838503121561176a57600080fd5b8235915061177a60208401611719565b90509250929050565b60006020828403121561179557600080fd5b5035919050565b634e487b7160e01b600052602160045260246000fd5b60208101600683106117c6576117c661179c565b91905290565b600080604083850312156117df57600080fd5b6117e883611719565b946020939093013593505050565b6000815180845260005b8181101561181c57602081850181015186830182015201611800565b506000602082860101526020601f19601f83011685010191505092915050565b60208152815160208201526000602083015160e060408401526118636101008401826117f6565b60408501516001600160a01b0316606085810191909152850151848203601f1901608086015290915061189682826117f6565b915050608084015160a084015260a084015160c084015260c0840151151560e08401528091505092915050565b600080604083850312156118d657600080fd5b6118df83611719565b91506020830135600681106118f357600080fd5b809150509250929050565b634e487b7160e01b600052604160045260246000fd5b600082601f83011261192557600080fd5b813567ffffffffffffffff80821115611940576119406118fe565b604051601f8301601f19908116603f01168101908282118183101715611968576119686118fe565b8160405283815286602085880101111561198157600080fd5b836020870160208301376000602085830101528094505050505092915050565b6000806000606084860312156119b657600080fd5b833567ffffffffffffffff808211156119ce57600080fd5b6119da87838801611914565b945060208601359150808211156119f057600080fd5b506119fd86828701611914565b925050604084013590509250925092565b60a081526000611a2160a08301886117f6565b6001600160a01b03871660208401528281036040840152611a4281876117f6565b606084019590955250509015156080909101529392505050565b87815260e060208201526000611a7560e08301896117f6565b6001600160a01b03881660408401528281036060840152611a9681886117f6565b6080840196909652505060a0810192909252151560c090910152949350505050565b60078110611ac857611ac861179c565b9052565b60006020808301818452808551808352604092508286019150828160051b87010184880160005b83811015611b6e57603f19898403018552815160a08151855288820151611b1c8a870182611ab8565b50878201518189870152611b32828701826117f6565b915050606080830151818701525060808083015192508582038187015250611b5a81836117f6565b968901969450505090860190600101611af3565b509098975050505050505050565b6020808252825182820181905260009190848201906040850190845b81811015611bb457835183529284019291840191600101611b98565b50909695505050505050565b60008060408385031215611bd357600080fd5b50508035926020909101359150565b858152611bf26020820186611ab8565b60a060408201526000611c0860a08301866117f6565b8460608401528281036080840152611c2081856117f6565b98975050505050505050565b60008060008060808587031215611c4257600080fd5b84359350602085013560078110611c5857600080fd5b9250604085013567ffffffffffffffff80821115611c7557600080fd5b611c8188838901611914565b93506060870135915080821115611c9757600080fd5b50611ca487828801611914565b91505092959194509250565b6020808252600a908201526927b7363c9030b236b4b760b11b604082015260600190565b6020808252600f908201526e2737ba103130ba31b41037bbb732b960891b604082015260600190565b600181811c90821680611d1157607f821691505b602082108103611d3157634e487b7160e01b600052602260045260246000fd5b50919050565b600060018201611d5757634e487b7160e01b600052601160045260246000fd5b5060010190565b601f821115611da857600081815260208120601f850160051c81016020861015611d855750805b601f850160051c820191505b81811015611da457828155600101611d91565b5050505b505050565b815167ffffffffffffffff811115611dc757611dc76118fe565b611ddb81611dd58454611cfd565b84611d5e565b602080601f831160018114611e105760008415611df85750858301515b600019600386901b1c1916600185901b178555611da4565b600085815260208120601f198616915b82811015611e3f57888601518255948401946001909101908401611e20565b5085821015611e5d5787850151600019600388901b60f8161c191681555b5050505050600190811b01905550565b828152604060208201526000611e8660408301846117f6565b949350505050565b838152611e9e6020820184611ab8565b606060408201526000611eb460608301846117f6565b9594505050505056fea2646970667358221220693aac30a4419d9d8f526ccdf0d7c1aea7129907e5ba60257bd70dd31e19ee4e64736f6c63430008140033",
  "linkReferences": {},
  "deployedLinkReferences": {}
}