{
  "_format": "hh-sol-artifact-1",
  "contractName": "FoodTrace",
  "sourceName": "contracts/FoodTrace.sol",
  "abi": [
    {
      "inputs": [],
      "stateMutability": "nonpayable",
      "type": "constructor"
    },
    {
      "anonymous": false,
      "inputs": [
        {
          "indexed": false,
          "internalType": "uint256",
          "name": "batchId",
          "type": "uint256"
        },
        {
          "indexed": false,
          "internalType": "string",
          "name": "name",
          "type": "string"
        },
        {
          "indexed": true,
          "internalType": "address",
          "name": "owner",
          "type": "address"
        }
      ],
      "name": "BatchCreated",
      "type": "event"
    },
    {
      "anonymous": false,
      "inputs": [
        {
          "indexed": false,
          "internalType": "uint256",
          "name": "batchId",
          "type": "uint256"
        },
        {
          "indexed": false,
          "internalType": "enum FoodTrace.EventType",
          "name": "eventType",
          "type": "uint8"
        },
        {
          "indexed": false,
          "internalType": "string",
          "name": "location",
          "type": "string"
        }
      ],
      "name": "BatchEvent",
      "type": "event"
    },
    {
      "inputs": [
        {
          "internalType": "uint256",
          "name": "batchId",
          "type": "uint256"
        },
        {
          "internalType": "enum FoodTrace.EventType",
          "name": "eventType",
          "type": "uint8"
        },
        {
          "internalType": "string",
          "name": "location",
          "type": "string"
        },
        {
          "internalType": "string",
          "name": "additionalData",
          "type": "string"
        }
      ],
      "name": "addBatchEvent",
      "outputs": [],
      "stateMutability": "nonpayable",
      "type": "function"
    },
    {
      "inputs": [
        {
          "internalType": "address",
          "name": "agency",
          "type": "address"
        }
      ],
      "name": "addTrustedAgency",
      "outputs": [],
      "stateMutability": "nonpayable",
      "type": "function"
    },
    {
      "inputs": [],
      "name": "admin",
      "outputs": [
        {
          "internalType": "address",
          "name": "",
          "type": "address"
        }
      ],
      "stateMutability": "view",
      "type": "function"
    },
    {
      "inputs": [
        {
          "internalType": "address",
          "name": "user",
          "type": "address"
        },
        {
          "internalType": "enum FoodTrace.Role",
          "name": "role",
          "type": "uint8"
        }
      ],
      "name": "assignRole",
      "outputs": [],
      "stateMutability": "nonpayable",
      "type": "function"
    },
    {
      "inputs": [
        {
          "internalType": "uint256",
          "name": "",
          "type": "uint256"
        },
        {
          "internalType": "uint256",
          "name": "",
          "type": "uint256"
        }
      ],
      "name": "batchEvents",
      "outputs": [
        {
          "internalType": "uint256",
          "name": "batchId",
          "type": "uint256"
        },
        {
          "internalType": "enum FoodTrace.EventType",
          "name": "eventType",
          "type": "uint8"
        },
        {
          "internalType": "string",
          "name": "location",
          "type": "string"
        },
        {
          "internalType": "uint256",
          "name": "timestamp",
          "type": "uint256"
        },
        {
          "internalType": "string",
          "name": "additionalData",
          "type": "string"
        }
      ],
      "stateMutability": "view",
      "type": "function"
    },
    {
      "inputs": [
        {
          "internalType": "uint256",
          "name": "",
          "type": "uint256"
        }
      ],
      "name": "batches",
      "outputs": [
        {
          "internalType": "uint256",
          "name": "id",
          "type": "uint256"
        },
        {
          "internalType": "string",
          "name": "name",
          "type": "string"
        },
        {
          "internalType": "address",
          "name": "currentOwner",
          "type": "address"
        },
        {
          "internalType": "string",
          "name": "location",
          "type": "string"
        },
        {
          "internalType": "uint256",
          "name": "timestamp",
          "type": "uint256"
        },
        {
          "internalType": "uint256",
          "name": "expiryDate",
          "type": "uint256"
        }
      ],
      "stateMutability": "view",
      "type": "function"
    },
    {
      "inputs": [
        {
          "internalType": "string",
          "name": "name",
          "type": "string"
        },
        {
          "internalType": "string",
          "name": "location",
          "type": "string"
        },
        {
          "internalType": "uint256",
          "name": "expiryDate",
          "type": "uint256"
        }
      ],
      "name": "createBatch",
      "outputs": [],
      "stateMutability": "nonpayable",
      "type": "function"
    },
    {
      "inputs": [
        {
          "internalType": "uint256",
          "name": "batchId",
          "type": "uint256"
        }
      ],
      "name": "getBatch",
      "outputs": [
        {
          "components": [
            {
              "internalType": "uint256",
              "name": "id",
              "type": "uint256"
            },
            {
              "internalType": "string",
              "name": "name",
              "type": "string"
            },
            {
              "internalType": "address",
              "name": "currentOwner",
              "type": "address"
            },
            {
              "internalType": "string",
              "name": "location",
              "type": "string"
            },
            {
              "internalType": "uint256",
              "name": "timestamp",
              "type": "uint256"
            },
            {
              "internalType": "uint256",
              "name": "expiryDate",
              "type": "uint256"
            }
          ],
          "internalType": "struct FoodTrace.Batch",
          "name": "",
          "type": "tuple"
        }
      ],
      "stateMutability": "view",
      "type": "function"
    },
    {
      "inputs": [
        {
          "internalType": "uint256",
          "name": "batchId",
          "type": "uint256"
        }
      ],
      "name": "getBatchDetails",
      "outputs": [
        {
          "internalType": "string",
          "name": "name",
          "type": "string"
        },
        {
          "internalType": "address",
          "name": "currentOwner",
          "type": "address"
        },
        {
          "internalType": "string",
          "name": "location",
          "type": "string"
        },
        {
          "internalType": "uint256",
          "name": "expiryDate",
          "type": "uint256"
        }
      ],
      "stateMutability": "view",
      "type": "function"
    },
    {
      "inputs": [
        {
          "internalType": "uint256",
          "name": "batchId",
          "type": "uint256"
        }
      ],
      "name": "getEvents",
      "outputs": [
        {
          "components": [
            {
              "internalType": "uint256",
              "name": "batchId",
              "type": "uint256"
            },
            {
              "internalType": "enum FoodTrace.EventType",
              "name": "eventType",
              "type": "uint8"
            },
            {
              "internalType": "string",
              "name": "location",
              "type": "string"
            },
            {
              "internalType": "uint256",
              "name": "timestamp",
              "type": "uint256"
            },
            {
              "internalType": "string",
              "name": "additionalData",
              "type": "string"
            }
          ],
          "internalType": "struct FoodTrace.Event[]",
          "name": "",
          "type": "tuple[]"
        }
      ],
      "stateMutability": "view",
      "type": "function"
    },
    {
      "inputs": [
        {
          "internalType": "address",
          "name": "user",
          "type": "address"
        }
      ],
      "name": "getRole",
      "outputs": [
        {
          "internalType": "enum FoodTrace.Role",
          "name": "",
          "type": "uint8"
        }
      ],
      "stateMutability": "view",
      "type": "function"
    },
    {
      "inputs": [
        {
          "internalType": "address",
          "name": "user",
          "type": "address"
        }
      ],
      "name": "getUserBatches",
      "outputs": [
        {
          "internalType": "uint256[]",
          "name": "",
          "type": "uint256[]"
        }
      ],
      "stateMutability": "view",
      "type": "function"
    },
    {
      "inputs": [
        {
          "internalType": "uint256",
          "name": "batchId",
          "type": "uint256"
        }
      ],
      "name": "isBatchExpired",
      "outputs": [
        {
          "internalType": "bool",
          "name": "",
          "type": "bool"
        }
      ],
      "stateMutability": "view",
      "type": "function"
    },
    {
      "inputs": [
        {
          "internalType": "address",
          "name": "agency",
          "type": "address"
        }
      ],
      "name": "isTrusted",
      "outputs": [
        {
          "internalType": "bool",
          "name": "",
          "type": "bool"
        }
      ],
      "stateMutability": "view",
      "type": "function"
    },
    {
      "inputs": [],
      "name": "nextBatchId",
      "outputs": [
        {
          "internalType": "uint256",
          "name": "",
          "type": "uint256"
        }
      ],
      "stateMutability": "view",
      "type": "function"
    },
    {
      "inputs": [
        {
          "internalType": "address",
          "name": "agency",
          "type": "address"
        }
      ],
      "name": "removeTrustedAgency",
      "outputs": [],
      "stateMutability": "nonpayable",
      "type": "function"
    },
    {
      "inputs": [
        {
          "internalType": "address",
          "name": "",
          "type": "address"
        }
      ],
      "name": "trustedAgencies",
      "outputs": [
        {
          "internalType": "bool",
          "name": "",
          "type": "bool"
        }
      ],
      "stateMutability": "view",
      "type": "function"
    },
    {
      "inputs": [
        {
          "internalType": "address",
          "name": "",
          "type": "address"
        },
        {
          "internalType": "uint256",
          "name": "",
          "type": "uint256"
        }
      ],
      "name": "userBatches",
      "outputs": [
        {
          "internalType": "uint256",
          "name": "",
          "type": "uint256"
        }
      ],
      "stateMutability": "view",
      "type": "function"
    },
    {
      "inputs": [
        {
          "internalType": "address",
          "name": "",
          "type": "address"
        }
      ],
      "name": "userRoles",
      "outputs": [
        {
          "internalType": "enum FoodTrace.Role",
          "name": "",
          "type": "uint8"
        }
      ],
      "stateMutability": "view",
      "type": "function"
    }
  ],
  "bytecode": "0x608060405234801561001057600080fd5b50600180546001600160a01b0319163390811782556000908152600360205260409020805460ff19169091179055611b378061004d6000396000f3fe608060405234801561001057600080fd5b50600436106101215760003560e01c806387ea2915116100ad578063bd687def11610071578063bd687def146102ef578063d913a08b1461030f578063de75348c1461032f578063f851a44014610353578063fc8a5f041461037e57600080fd5b806387ea29151461025557806396d64879146102685780639d47dcc014610294578063b32c4d8d146102b7578063b787b1a9146102dc57600080fd5b80635ac44282116100f45780635ac44282146101d1578063630a195b146101f15780636a42ba921461020457806374d5e100146102295780638462a7f81461024c57600080fd5b80631c15146414610126578063442767331461013b578063475d1ba31461017d57806350ce10a61461019e575b600080fd5b6101396101343660046113ef565b610391565b005b6101676101493660046113ef565b6001600160a01b031660009081526002602052604090205460ff1690565b6040516101749190611427565b60405180910390f35b61019061018b366004611441565b6103e8565b604051908152602001610174565b6101c16101ac3660046113ef565b60036020526000908152604090205460ff1681565b6040519015158152602001610174565b6101e46101df36600461146b565b610419565b60405161017491906114ca565b6101396101ff366004611544565b6105d9565b6101c161021236600461146b565b600090815260046020526040902060050154421190565b6101676102373660046113ef565b60026020526000908152604090205460ff1681565b61019060005481565b610139610263366004611622565b610641565b6101c16102763660046113ef565b6001600160a01b031660009081526003602052604090205460ff1690565b6102a76102a236600461146b565b610824565b604051610174949392919061168f565b6102ca6102c536600461146b565b6109ca565b604051610174969594939291906116d5565b6101396102ea3660046113ef565b610b1e565b6103026102fd36600461146b565b610b69565b6040516101749190611739565b61032261031d3660046113ef565b610d4c565b60405161017491906117e9565b61034261033d36600461182d565b610db8565b60405161017495949392919061184f565b600154610366906001600160a01b031681565b6040516001600160a01b039091168152602001610174565b61013961038c366004611899565b610f1c565b6001546001600160a01b031633146103c45760405162461bcd60e51b81526004016103bb9061191d565b60405180910390fd5b6001600160a01b03166000908152600360205260409020805460ff19166001179055565b6006602052816000526040600020818154811061040457600080fd5b90600052602060002001600091509150505481565b61045b6040518060c00160405280600081526020016060815260200160006001600160a01b031681526020016060815260200160008152602001600081525090565b600460008381526020019081526020016000206040518060c00160405290816000820154815260200160018201805461049390611941565b80601f01602080910402602001604051908101604052809291908181526020018280546104bf90611941565b801561050c5780601f106104e15761010080835404028352916020019161050c565b820191906000526020600020905b8154815290600101906020018083116104ef57829003601f168201915b505050918352505060028201546001600160a01b0316602082015260038201805460409092019161053c90611941565b80601f016020809104026020016040519081016040528092919081815260200182805461056890611941565b80156105b55780601f1061058a576101008083540402835291602001916105b5565b820191906000526020600020905b81548152906001019060200180831161059857829003601f168201915b50505050508152602001600482015481526020016005820154815250509050919050565b6001546001600160a01b031633146106035760405162461bcd60e51b81526004016103bb9061191d565b6001600160a01b0382166000908152600260205260409020805482919060ff1916600183600681111561063857610638611411565b02179055505050565b3360009081526003602052604090205460ff166106955760405162461bcd60e51b81526020600482015260126024820152714e6f742074727573746564206167656e637960701b60448201526064016103bb565b60013360009081526002602052604090205460ff1660068111156106bb576106bb611411565b146107085760405162461bcd60e51b815260206004820152601e60248201527f4f6e6c79204661726d65722063616e206372656174652062617463686573000060448201526064016103bb565b6000805481806107178361197b565b909155506040805160c081018252828152602080820188815233838501526060830188905242608084015260a083018790526000858152600490925292902081518155915192935091600182019061076f90826119f1565b5060408201516002820180546001600160a01b0319166001600160a01b03909216919091179055606082015160038201906107aa90826119f1565b506080820151600482015560a09091015160059091015533600081815260066020908152604080832080546001810182559084529190922001839055517f195a26ecf0c9b8fb957ecc3a7c029ce84849279de600e16f205ee789052052b6906108169084908890611ab1565b60405180910390a250505050565b606060006060600080600460008781526020019081526020016000206040518060c00160405290816000820154815260200160018201805461086590611941565b80601f016020809104026020016040519081016040528092919081815260200182805461089190611941565b80156108de5780601f106108b3576101008083540402835291602001916108de565b820191906000526020600020905b8154815290600101906020018083116108c157829003601f168201915b505050918352505060028201546001600160a01b0316602082015260038201805460409092019161090e90611941565b80601f016020809104026020016040519081016040528092919081815260200182805461093a90611941565b80156109875780601f1061095c57610100808354040283529160200191610987565b820191906000526020600020905b81548152906001019060200180831161096a57829003601f168201915b505050505081526020016004820154815260200160058201548152505090508060200151816040015182606001518360a001519450945094509450509193509193565b600460205260009081526040902080546001820180549192916109ec90611941565b80601f0160208091040260200160405190810160405280929190818152602001828054610a1890611941565b8015610a655780601f10610a3a57610100808354040283529160200191610a65565b820191906000526020600020905b815481529060010190602001808311610a4857829003601f168201915b505050600284015460038501805494956001600160a01b03909216949193509150610a8f90611941565b80601f0160208091040260200160405190810160405280929190818152602001828054610abb90611941565b8015610b085780601f10610add57610100808354040283529160200191610b08565b820191906000526020600020905b815481529060010190602001808311610aeb57829003601f168201915b5050505050908060040154908060050154905086565b6001546001600160a01b03163314610b485760405162461bcd60e51b81526004016103bb9061191d565b6001600160a01b03166000908152600360205260409020805460ff19169055565b606060056000838152602001908152602001600020805480602002602001604051908101604052809291908181526020016000905b82821015610d4157838290600052602060002090600502016040518060a0016040529081600082015481526020016001820160009054906101000a900460ff166005811115610bef57610bef611411565b6005811115610c0057610c00611411565b8152602001600282018054610c1490611941565b80601f0160208091040260200160405190810160405280929190818152602001828054610c4090611941565b8015610c8d5780601f10610c6257610100808354040283529160200191610c8d565b820191906000526020600020905b815481529060010190602001808311610c7057829003601f168201915b5050505050815260200160038201548152602001600482018054610cb090611941565b80601f0160208091040260200160405190810160405280929190818152602001828054610cdc90611941565b8015610d295780601f10610cfe57610100808354040283529160200191610d29565b820191906000526020600020905b815481529060010190602001808311610d0c57829003601f168201915b50505050508152505081526020019060010190610b9e565b505050509050919050565b6001600160a01b038116600090815260066020908152604091829020805483518184028101840190945280845260609392830182828015610dac57602002820191906000526020600020905b815481526020019060010190808311610d98575b50505050509050919050565b60056020528160005260406000208181548110610dd457600080fd5b600091825260209091206005909102018054600182015460028301805492955060ff909116935090610e0590611941565b80601f0160208091040260200160405190810160405280929190818152602001828054610e3190611941565b8015610e7e5780601f10610e5357610100808354040283529160200191610e7e565b820191906000526020600020905b815481529060010190602001808311610e6157829003601f168201915b505050505090806003015490806004018054610e9990611941565b80601f0160208091040260200160405190810160405280929190818152602001828054610ec590611941565b8015610f125780601f10610ee757610100808354040283529160200191610f12565b820191906000526020600020905b815481529060010190602001808311610ef557829003601f168201915b5050505050905085565b3360009081526003602052604090205460ff16610f705760405162461bcd60e51b81526020600482015260126024820152714e6f742074727573746564206167656e637960701b60448201526064016103bb565b600084815260046020526040902060050154421115610fc15760405162461bcd60e51b815260206004820152600d60248201526c10985d18da08195e1c1a5c9959609a1b60448201526064016103bb565b6000836005811115610fd557610fd5611411565b036110525760013360009081526002602052604090205460ff16600681111561100057611000611411565b1461104d5760405162461bcd60e51b815260206004820152601e60248201527f4f6e6c79204661726d65722063616e206164642074686973206576656e74000060448201526064016103bb565b6112c1565b600183600581111561106657611066611411565b14806110835750600283600581111561108157611081611411565b145b156111075760023360009081526002602052604090205460ff1660068111156110ae576110ae611411565b1461104d5760405162461bcd60e51b815260206004820152602360248201527f4f6e6c79204d616e75666174757265722063616e206164642074686973206576604482015262195b9d60ea1b60648201526084016103bb565b600383600581111561111b5761111b611411565b0361119f5760033360009081526002602052604090205460ff16600681111561114657611146611411565b1461104d5760405162461bcd60e51b815260206004820152602360248201527f4f6e6c79205472616e73706f727465722063616e206164642074686973206576604482015262195b9d60ea1b60648201526084016103bb565b60048360058111156111b3576111b3611411565b036112355760043360009081526002602052604090205460ff1660068111156111de576111de611411565b1461104d5760405162461bcd60e51b815260206004820152602160248201527f4f6e6c792057617265686f7573652063616e206164642074686973206576656e6044820152601d60fa1b60648201526084016103bb565b600583600581111561124957611249611411565b036112c15760053360009081526002602052604090205460ff16600681111561127457611274611411565b146112c15760405162461bcd60e51b815260206004820181905260248201527f4f6e6c792052657461696c65722063616e206164642074686973206576656e7460448201526064016103bb565b600560008581526020019081526020016000206040518060a001604052808681526020018560058111156112f7576112f7611411565b81526020808201869052426040830152606090910184905282546001818101855560009485529382902083516005928302909101908155918301518285018054949593949193909260ff1990921691849081111561135757611357611411565b02179055506040820151600282019061137090826119f1565b50606082015160038201556080820151600482019061138f90826119f1565b5050507fc97a1d53c4641fab2d96d8111e365a5f61f64bbc2d8bfd7b32566fe25668e3328484846040516113c593929190611ad2565b60405180910390a150505050565b80356001600160a01b03811681146113ea57600080fd5b919050565b60006020828403121561140157600080fd5b61140a826113d3565b9392505050565b634e487b7160e01b600052602160045260246000fd5b602081016007831061143b5761143b611411565b91905290565b6000806040838503121561145457600080fd5b61145d836113d3565b946020939093013593505050565b60006020828403121561147d57600080fd5b5035919050565b6000815180845260005b818110156114aa5760208185018101518683018201520161148e565b506000602082860101526020601f19601f83011685010191505092915050565b60208152815160208201526000602083015160c060408401526114f060e0840182611484565b60408501516001600160a01b0316606085810191909152850151848203601f190160808601529091506115238282611484565b915050608084015160a084015260a084015160c08401528091505092915050565b6000806040838503121561155757600080fd5b611560836113d3565b915060208301356007811061157457600080fd5b809150509250929050565b634e487b7160e01b600052604160045260246000fd5b600082601f8301126115a657600080fd5b813567ffffffffffffffff808211156115c1576115c161157f565b604051601f8301601f19908116603f011681019082821181831017156115e9576115e961157f565b8160405283815286602085880101111561160257600080fd5b836020870160208301376000602085830101528094505050505092915050565b60008060006060848603121561163757600080fd5b833567ffffffffffffffff8082111561164f57600080fd5b61165b87838801611595565b9450602086013591508082111561167157600080fd5b5061167e86828701611595565b925050604084013590509250925092565b6080815260006116a26080830187611484565b6001600160a01b038616602084015282810360408401526116c38186611484565b91505082606083015295945050505050565b86815260c0602082015260006116ee60c0830188611484565b6001600160a01b0387166040840152828103606084015261170f8187611484565b6080840195909552505060a00152949350505050565b6006811061173557611735611411565b9052565b60006020808301818452808551808352604092508286019150828160051b87010184880160005b838110156117db57603f19898403018552815160a081518552888201516117898a870182611725565b5087820151818987015261179f82870182611484565b9150506060808301518187015250608080830151925085820381870152506117c78183611484565b968901969450505090860190600101611760565b509098975050505050505050565b6020808252825182820181905260009190848201906040850190845b8181101561182157835183529284019291840191600101611805565b50909695505050505050565b6000806040838503121561184057600080fd5b50508035926020909101359150565b85815261185f6020820186611725565b60a06040820152600061187560a0830186611484565b846060840152828103608084015261188d8185611484565b98975050505050505050565b600080600080608085870312156118af57600080fd5b843593506020850135600681106118c557600080fd5b9250604085013567ffffffffffffffff808211156118e257600080fd5b6118ee88838901611595565b9350606087013591508082111561190457600080fd5b5061191187828801611595565b91505092959194509250565b6020808252600a908201526927b7363c9030b236b4b760b11b604082015260600190565b600181811c9082168061195557607f821691505b60208210810361197557634e487b7160e01b600052602260045260246000fd5b50919050565b60006001820161199b57634e487b7160e01b600052601160045260246000fd5b5060010190565b601f8211156119ec57600081815260208120601f850160051c810160208610156119c95750805b601f850160051c820191505b818110156119e8578281556001016119d5565b5050505b505050565b815167ffffffffffffffff811115611a0b57611a0b61157f565b611a1f81611a198454611941565b846119a2565b602080601f831160018114611a545760008415611a3c5750858301515b600019600386901b1c1916600185901b1785556119e8565b600085815260208120601f198616915b82811015611a8357888601518255948401946001909101908401611a64565b5085821015611aa15787850151600019600388901b60f8161c191681555b5050505050600190811b01905550565b828152604060208201526000611aca6040830184611484565b949350505050565b838152611ae26020820184611725565b606060408201526000611af86060830184611484565b9594505050505056fea2646970667358221220432a1833b4b97746792e7747be3be3fe49efbf924b2e9a120bebd12bb69c643664736f6c63430008140033",
  "linkReferences": {},
  "deployedLinkReferences": {}
}